:1000000020C03AC039C038C037C017C135C034C06D
:1000100033C032C031C030C02FC02EC02DC0000050
:10002000000037000000000038000000000036002B
:100030000202020202020102040810200102000072
:10004000000011241FBECFE5D2E0DEBFCDBF10E01F
:10005000A0E6B0E0E4E5F9E002C005900D92A0371B
:10006000B107D9F710E0A0E7B0E001C01D92A238B7
:10007000B107E1F70ED26CC4C3CFAF92BF92CF925B
:10008000DF92EF92FF920F931F9381E076D1AA2720
:1000900097FDA095BA2FBC01CD01E5D26093600019
:1000A00070936100809362009093630000D000D051
:1000B0000DB71EB70F5F1F4FA3D22EE130E040E017
:1000C00050E0F80120833183428353832AE231E0F8
:1000D00040E050E0BBE4EB2EB1E0FB2E012D112DF2
:1000E000A4E1AA2EB12CC12CD12CDED1BCD26093BC
:1000F0006C0070936D0080936E0090936F000DB74D
:100100001EB70F5F1F4F7CD225E332E840E050E07E
:10011000F801208331834283538324E130E040E0BF
:1001200050E0FEE1EF2EF12C012D112DE0E5AE2E79
:10013000E3ECBE2EC12CD12CB7D195D260936800D0
:100140007093690080936A0090936B000F900F90FA
:100150000F900F90C6D07B018C0160937400709358
:100160007500809376009093770060917000709195
:100170007100809172009091730073D22091680099
:100180003091690040916A0050916B00D5D15B01BC
:100190006C01C801B70165D2A6019501F0D218160D
:1001A00014F5C601B50131D26093700070937100EF
:1001B000809372009093730081E061E036D160918A
:1001C00068007091690080916A0090916B002AE04C
:1001D00037ED43EA5CE3D7D218D2DC01CB01A8D0DB
:1001E00081E060E022D11F910F91FF90EF90DF90AE
:1001F000CF90BF90AF90089581E060E0D7D083E0CA
:1002000060E0D4D081E061E0D1D080E061E0CED088
:1002100084E061E0CBD081E0B0D0AA2797FDA09523
:10022000BA2FBC01CD011FD26093640070936500AA
:10023000809366009093670008951F920F920FB607
:100240000F9211242F933F934F935F936F937F935C
:100250008F939F93AF93BF9320917C0030917D004B
:1002600040917E0050917F0070918000DA01C901B9
:100270000296A11DB11D672F6A5F6D3730F06D5773
:10028000DA01C9010396A11DB11D6093800080931E
:100290007C0090937D00A0937E00B0937F008091BE
:1002A000780090917900A0917A00B0917B0001963E
:1002B000A11DB11D8093780090937900A0937A00DE
:1002C000B0937B00BF91AF919F918F917F916F9180
:1002D0005F914F913F912F910F900FBE0F901F9004
:1002E00018959FB7F894209178003091790040914B
:1002F0007A0050917B0082B708B601FE06C08F3F9E
:1003000021F02F5F3F4F4F4F5F4F9FBF542F432F21
:10031000322F2227280F311D411D511D83E0220F4E
:10032000331F441F551F8A95D1F7B901CA0108959B
:10033000019739F0019729F0880F991F01970197CC
:10034000F1F7089578948AB582608ABD8AB5816094
:100350008ABD83B7826083BF83B7816083BF89B75B
:10036000826089BF80B7826080BF80B7816080BFB4
:10037000329A319A309A379A0895982F8E3008F031
:100380009E509770809181008295880F880F807CA5
:10039000892B87B9369A3699FECF24B145B1942F6F
:1003A00080E030E0282B392BC9010895CF93DF93EB
:1003B000482F50E0CA018A5C9F4FFC013491405D98
:1003C0005F4FFA018491882369F190E0880F991FAB
:1003D000FC01E25EFF4FA591B491FC01EC5DFF4F83
:1003E000C591D491662351F42FB7F8948C91932F33
:1003F000909589238C93888189230BC0623061F4A6
:100400002FB7F8948C91932F909589238C938881A2
:10041000832B88832FBF06C09FB7F8948C91832BC2
:100420008C939FBFDF91CF910895482F50E0CA0170
:10043000845C9F4FFC012491CA018A5C9F4FFC01A0
:100440009491405D5F4FFA013491332309F12223E7
:1004500059F0213019F0223039F403C08AB58F7772
:1004600002C08AB58F7D8ABDE32FF0E0EE0FFF1F3B
:10047000EC5DFF4FA591B4912FB7F894662321F45A
:100480008C919095892302C08C91892B8C932FBFDE
:100490000895CF93DF9356DFAFDEC0E0D0E0EDDD0F
:1004A0002097E9F3ADDDFBCF2F923F924F925F9201
:1004B0006F927F928F929F92AF92BF92CF92DF9274
:1004C000EF92FF920F931F93DF93CF93CDB7DEB7D9
:1004D0003B014C0119012A016D897E898F89988D14
:1004E0006A197B098C099D09621A730A840A950AA4
:1004F000A4019301D7D1E218F30804091509A80152
:100500009701E9D12A0D3B1D4C1D5D1DB901CA01A2
:10051000CF91DF911F910F91FF90EF90DF90CF90DF
:10052000BF90AF909F908F907F906F905F904F9013
:100530003F902F9008955058BB27AA270ED0E5C0B2
:10054000D6D030F0DBD020F031F49F3F11F41EF410
:10055000CBC00EF4E095E7FBC1C0E92FE7D080F3F4
:10056000BA17620773078407950718F071F49EF5B0
:10057000FFC00EF4E0950B2EBA2FA02D0B01B90190
:1005800090010C01CA01A0011124FF27591B99F009
:10059000593F50F4503E68F11A16F040A22F232F15
:1005A000342F4427585FF3CF469537952795A79565
:1005B000F0405395C9F77EF41F16BA0B620B730B0C
:1005C000840BBAF09150A1F0FF0FBB1F661F771F7D
:1005D000881FC2F70EC0BA0F621F731F841F48F432
:1005E000879577956795B795F7959E3F08F0B3CFB8
:1005F0009395880F08F09927EE0F979587950895A2
:1006000004D06894B111B5C0089598D088F09F5770
:1006100090F0B92F9927B751A0F0D1F0660F771F4E
:10062000881F991F1AF0BA95C9F712C0B13081F02E
:100630009FD0B1E008959CC0672F782F8827B85FBE
:1006400039F0B93FCCF3869577956795B395D9F78F
:100650003EF490958095709561957F4F8F4F9F4F99
:100660000895E89409C097FB3EF4909580957095A5
:1006700061957F4F8F4F9F4F9923A9F0F92F96E9EE
:10068000BB279395F695879577956795B795F11163
:10069000F8CFFAF4BB0F11F460FF1BC06F5F7F4F00
:1006A0008F4F9F4F16C0882311F096E911C0772312
:1006B00021F09EE8872F762F05C0662371F096E81B
:1006C000862F70E060E02AF09A95660F771F881FEA
:1006D000DAF7880F9695879597F9089597F99F67A8
:1006E00080E870E060E008959FEF80EC08950024BA
:1006F0000A941616170618060906089500240A9487
:1007000012161306140605060895092E0394000C0C
:1007100011F4882352F0BB0F40F4BF2B11F460FF9B
:1007200004C06F5F7F4F8F4F9F4F089557FD9058C4
:10073000440F551F59F05F3F71F04795880F97FBA5
:10074000991F61F09F3F79F087950895121613065F
:100750001406551FF2CF4695F1DF08C0161617068E
:100760001806991FF1CF86957105610508940895C3
:10077000E894BB2766277727CB0197F908956ED0B9
:1007800008F48FEF08950AD0C0CFB1DF28F0B6DFAC
:1007900018F0952309F0A2CFA7CFEBCFC7DFA8F3BE
:1007A0009923D9F35523C9F3950F50E0551FAA2774
:1007B000EE27FF27BB2700240894679520F4E20F5B
:1007C000F31FB41F0A1E220F331F441FAA1F669572
:1007D000A9F7779530F4F30FB41F0A1E121E08F420
:1007E0006395330F441FAA1F221F769599F78795AB
:1007F00020F4B40F0A1E121E631F440FAA1F221FEB
:10080000331F8695A9F7862F712D602D11249F57D0
:1008100050408AF0E1F088234AF0EE0FFF1FBB1F23
:10082000661F771F881F91505040A9F79E3F5105C2
:1008300070F054CF9ECF5F3FECF3983EDCF386958B
:1008400077956795B795F795E7959F5FC1F7FE2B6D
:10085000880F911D9695879597F90895990F00082F
:10086000550FAA0BE0E8FEEF16161706E807F90782
:10087000C0F012161306E407F50798F0621B730B1D
:10088000840B950B39F40A2661F0232B242B252B9E
:1008900021F408950A2609F4A140A6958FEF811D41
:1008A000811D0895FF27EE27BB27AA2760FF04C0FC
:1008B000A20FB31FE41FF51F220F331F441F551F44
:1008C000969587957795679589F70097760771F7DD
:1008D000CF01BD01089597FB092E05260ED057FDC7
:1008E00004D014D00AD0001C38F4509540953095AF
:1008F00021953F4F4F4F5F4F0895F6F790958095A4
:10090000709561957F4F8F4F9F4F0895A1E21A2EEA
:10091000AA1BBB1BFD010DC0AA1FBB1FEE1FFF1FA3
:10092000A217B307E407F50720F0A21BB30BE40BF3
:10093000F50B661F771F881F991F1A9469F760953A
:100940007095809590959B01AC01BD01CF010895F4
:04095000F894FFCF49
:100954000000803F0000803F0000803F0000803F97
:00000001FF
