:1000000020C03AC039C049C037C092C035C034C0E2
:1000100033C032C031C030C02FC02EC02DC0000050
:10002000000037000000000038000000000036002B
:100030000202020202020102040810200102000072
:10004000000011241FBECFE5D2E0DEBFCDBF10E01F
:10005000A0E6B0E0EEE1F4E002C005900D92A23619
:10006000B107D9F710E0A2E6B0E001C01D92AC36AE
:10007000B107E1F7C7D1D1C1C3CF809162008F5FD3
:1000800080936200809161008F5F8093610064E1E2
:1000900070E080E090E0A0D008951F920F920FB61C
:1000A0000F9211242F933F934F935F936F937F93FE
:1000B0008F939F93AF93BF93EF93FF9380916000D3
:1000C000882351F06091620081E070E0FBD088E20B
:1000D0008DBD1092600009C081E060E05FD1809129
:1000E00061008DBD81E080936000FF91EF91BF9131
:1000F000AF919F918F917F916F915F914F913F91C0
:100100002F910F900FBE0F901F90189580B78068A9
:1001100080BF89B7806489BF80B78B6080BF7894C7
:1001200081E061E0FCD081E068E070E0CBD0089530
:100130001F920F920FB60F9211242F933F934F935C
:100140005F936F937F938F939F93AF93BF93209110
:100150006700309168004091690050916A00709189
:100160006B00DA01C9010296A11DB11D672F6A5FFC
:100170006D3730F06D57DA01C9010396A11DB11D2D
:1001800060936B008093670090936800A093690070
:10019000B0936A008091630090916400A091650023
:1001A000B09166000196A11DB11D809363009093EC
:1001B0006400A0936500B0936600BF91AF919F91DA
:1001C0008F917F916F915F914F913F912F910F9000
:1001D0000FBE0F901F9018959B01AC017FB7F8944C
:1001E0008091630090916400A0916500B0916600D9
:1001F00062B708B601FE05C06F3F19F00196A11D58
:10020000B11D7FBFBA2FA92F982F8827860F911D68
:10021000A11DB11D63E0880F991FAA1FBB1F6A951E
:10022000D1F7BC012EC0FFB7F89480916300909184
:100230006400A0916500B0916600E2B708B601FEC7
:1002400005C0EF3F19F00196A11DB11DFFBFBA2FE8
:10025000A92F982F88278E0F911DA11DB11DE3E0B6
:10026000880F991FAA1FBB1FEA95D1F7861B970B12
:10027000885E9340C0F22150304040405040685169
:100280007C4F211531054105510569F60895789493
:100290008AB582608ABD8AB581608ABD83B7826073
:1002A00083BF83B7816083BF89B7826089BF80B70E
:1002B000826080BF80B7816080BF329A319A309A65
:1002C000379A08951F93CF93DF93182FEB0161E0C6
:1002D00026D02097D1F0CF3FD105D1F0E12FF0E02B
:1002E000E45CFF4F8491813019F0823059F405C0ED
:1002F0008AB580688ABDC9BD0EC08AB580628ABDD4
:10030000C8BD09C0C038D1051CF4812F60E002C00F
:10031000812F61E043D0DF91CF911F910895CF935A
:10032000DF93482F50E0CA018A5C9F4FFC01349153
:10033000405D5F4FFA018491882369F190E0880F56
:10034000991FFC01E25EFF4FA591B491FC01EC5DA9
:10035000FF4FC591D491662351F42FB7F8948C9137
:10036000932F909589238C93888189230BC06230C9
:1003700061F42FB7F8948C91932F909589238C93E7
:100380008881832B88832FBF06C09FB7F8948C91F8
:10039000832B8C939FBFDF91CF910895482F50E01E
:1003A000CA01845C9F4FFC012491CA018A5C9F4F63
:1003B000FC019491405D5F4FFA013491332309F1C0
:1003C000222359F0213019F0223039F403C08AB5C4
:1003D0008F7702C08AB58F7D8ABDE32FF0E0EE0FE4
:1003E000FF1FEC5DFF4FA591B4912FB7F8946623E2
:1003F00021F48C919095892302C08C91892B8C9348
:100400002FBF0895CF93DF9342DF80DEC0E0D0E0BE
:0E04100034DE2097E9F3F4DDFBCFF894FFCF44
:02041E0001FFDC
:00000001FF
