:1000000021C045C044C08AC142C0E8C140C03FC011
:100010003EC03DC03CC03BC03AC039C038C0000003
:10002000000037000000000038000000000036002B
:100030000202020202020102040810200102000072
:100040000000640011241FBECFE5D2E0DEBFCDBFAB
:1000500010E0A0E6B0E0E4EBF8E002C005900D92FD
:10006000AE37B107D9F710E0AEE7B0E001C01D929E
:10007000A23AB107E1F710E0C4E4D0E003C0229750
:10008000FE0112D4C234D107D1F72BD311C4B8CF9B
:100090009C01FB01009759F0CA01B9019FD3892B3C
:1000A00031F41216130614F4319601C03197BF01D2
:1000B000F7FF02C060E070E06F3F710519F014F0C7
:1000C0006FEF70E0CB010895409180005091810066
:1000D00050938700409386002091820030918300E6
:1000E000309389002093880080918400909185004E
:1000F00090938B0080938A005093930040939200DA
:1001000030939500209394009093970080939600ED
:1001100008954F925F926F927F928F929F92AF92CB
:10012000BF92CF92DF92EF92FF920F931F93CF93E4
:10013000DF93FC01C281D38104811581808191818B
:100140006FEF70E020D364E670E048D32B0180911C
:10015000920090919300481A590A29F08CEF93E08D
:10016000B2013CD32B01CE016FEF70E00CD364E6FB
:1001700070E034D33B018091940090919500681A0F
:10018000790A29F08CEF93E0B30128D33B01C80131
:100190006FEF70E0F8D264E670E020D34B018091FD
:1001A000960090919700881A990A29F08CEF93E0B5
:1001B000B40114D34B01C0E0D0E081E0D9D19093D9
:1001C0007F0080937E0000D000D0AA2797FDA095E5
:1001D000BA2F2FEF30E040E050E0EDB7FEB72183BB
:1001E000328343835483BC01CD012DE830E040E0ED
:1001F00050E0E5E5EE2EE1E0FE2E012D112DAA24C2
:10020000BB24650179D270937C0060937B000F90D2
:100210000F900F900F906091860070918700C2013F
:10022000AE0136DF9093870080938600609188004E
:1002300070918900C301AE012BDF909389008093F8
:10024000880060918A0070918B00C401AE0120DFAC
:1002500090938B0080938A00609178007091790070
:10026000882777FD8095982F0DD12196F3E0CD3F1B
:10027000DF0709F0A2CF80918600909187009093CC
:1002800093008093920080918800909189009093D0
:1002900095008093940080918A0090918B009093B8
:1002A00097008093960060918C0070918D00882754
:1002B00077FD8095982FE6D0DF91CF911F910F9118
:1002C000FF90EF90DF90CF90BF90AF909F908F9076
:1002D0007F906F905F904F90089580E690E019DFD7
:1002E00086E690E016DF8CE690E013DF82E790E090
:1002F00010DF20918E0030918F002115310569F0BB
:10030000809190009091910001969093910080933C
:100310009000821793070CF0CBD208951F920F9292
:100320000FB60F9211242F933F934F935F936F93C8
:100330007F938F939F93AF93BF93EF93FF9380919E
:100340007A008823B9F0609186007091870081E07F
:1003500028D1609188007091890080E022D160915D
:100360008A0070918B0084E01CD184E08DBD1092D6
:100370007A000FC081E060E080D180E060E07DD154
:1003800084E060E07AD180917B008DBD81E0809334
:100390007A00FF91EF91BF91AF919F918F917F91E3
:1003A0006F915F914F913F912F910F900FBE0F90E2
:1003B0001F90189581E061E021D180E061E01ED1BD
:1003C00084E061E01BD180B7806880BF89B780641A
:1003D00089BF80B78E6080BF789408951F920F9276
:1003E0000FB60F9211242F933F934F935F936F9308
:1003F0007F938F939F93AF93BF9320919C003091F5
:100400009D0040919E0050919F007091A000DA01E4
:10041000C9010296A11DB11D672F6A5F6D3730F0CB
:100420006D57DA01C9010396A11DB11D6093A000AB
:1004300080939C0090939D00A0939E00B0939F009A
:100440008091980090919900A0919A00B0919B00A2
:100450000196A11DB11D8093980090939900A093DF
:100460009A00B0939B00BF91AF919F918F917F9124
:100470006F915F914F913F912F910F900FBE0F9011
:100480001F9018959B01AC017FB7F894809198005C
:1004900090919900A0919A00B0919B0062B708B624
:1004A00001FE05C06F3F19F00196A11DB11D7FBF70
:1004B000BA2FA92F982F8827860F911DA11DB11D36
:1004C00063E0880F991FAA1FBB1F6A95D1F7BC0173
:1004D0002EC0FFB7F8948091980090919900A09158
:1004E0009A00B0919B00E2B708B601FE05C0EF3F4D
:1004F00019F00196A11DB11DFFBFBA2FA92F982F8A
:1005000088278E0F911DA11DB11DE3E0880F991F53
:10051000AA1FBB1FEA95D1F7861B970B885E9340F5
:10052000C0F2215030404040504068517C4F21156E
:1005300031054105510569F6089578948AB58260C0
:100540008ABD8AB581608ABD83B7826083BF83B765
:10055000816083BF89B7826089BF80B7826080BFB6
:1005600080B7816080BF329A319A309A379A089565
:10057000982F8E3008F09E5097708091A100829540
:10058000880F880F807C892B87B9369A3699FECFE1
:1005900024B145B1942F80E030E0282B392BC901DC
:1005A00008951F93CF93DF93182FEB0161E026D0BE
:1005B0002097D1F0CF3FD105D1F0E12FF0E0E45CFE
:1005C000FF4F8491813019F0823059F405C08AB50B
:1005D00080688ABDC9BD0EC08AB580628ABDC8BDAB
:1005E00009C0C038D1051CF4812F60E002C0812F02
:1005F00061E043D0DF91CF911F910895CF93DF93B6
:10060000482F50E0CA018A5C9F4FFC013491405D45
:100610005F4FFA018491882369F190E0880F991F58
:10062000FC01E25EFF4FA591B491FC01EC5DFF4F30
:10063000C591D491662351F42FB7F8948C91932FE0
:10064000909589238C93888189230BC0623061F453
:100650002FB7F8948C91932F909589238C93888150
:10066000832B88832FBF06C09FB7F8948C91832B70
:100670008C939FBFDF91CF910895482F50E0CA011E
:10068000845C9F4FFC012491CA018A5C9F4FFC014E
:100690009491405D5F4FFA013491332309F1222395
:1006A00059F0213019F0223039F403C08AB58F7720
:1006B00002C08AB58F7D8ABDE32FF0E0EE0FFF1FE9
:1006C000EC5DFF4FA591B4912FB7F894662321F408
:1006D0008C919095892302C08C91892B8C932FBF8C
:1006E0000895CF93DF9329DF65DEC0E0D0E0F5DD2C
:1006F0002097E9F385DCFBCF2F923F924F925F92D8
:100700006F927F928F929F92AF92BF92CF92DF9221
:10071000EF92FF920F931F93DF93CF93CDB7DEB786
:100720003B014C0119012A016D897E898F89988DC1
:100730006A197B098C099D09621A730A840A950A51
:10074000A401930132D0E218F30804091509A801A5
:10075000970157D02A0D3B1D4C1D5D1DB901CA01E3
:10076000CF91DF911F910F91FF90EF90DF90CF908D
:10077000BF90AF909F908F907F906F905F904F90C1
:100780003F902F9008955527002480FF02C0060E49
:10079000571F660F771F6115710521F09695879594
:1007A000009799F7952F802D0895FF27EE27BB27F7
:1007B000AA2760FF04C0A20FB31FE41FF51F220F7A
:1007C000331F441F551F969587957795679589F731
:1007D0000097760771F7CF01BD01089597FB092EA9
:1007E00007260AD077FD04D027D006D000201AF4BF
:1007F000709561957F4F0895F6F7909581959F4F7D
:10080000089597FB092E05260ED057FD04D028D059
:100810000AD0001C38F450954095309521953F4FF3
:100820004F4F5F4F0895F6F79095809570956195BD
:100830007F4F8F4F9F4F0895AA1BBB1B51E107C0ED
:10084000AA1FBB1FA617B70710F0A61BB70B881F60
:10085000991F5A95A9F780959095BC01CD010895EF
:10086000A1E21A2EAA1BBB1BFD010DC0AA1FBB1FB4
:10087000EE1FFF1FA217B307E407F50720F0A21B26
:10088000B30BE40BF50B661F771F881F991F1A9493
:1008900069F760957095809590959B01AC01BD01BD
:1008A000CF010895EE0FFF1F0590F491E02D0994FC
:0408B000F894FFCFEA
:1008B400640000000000000064000000000000006C
:0E08C400640028005F0000000A0001FF000031
:00000001FF
