:1000000020C03AC039C038C037C07FC035C034C006
:1000100033C032C031C030C02FC02EC02DC0000050
:10002000000037000000000038000000000036002B
:100030000202020202020102040810200102000072
:10004000000011241FBECFE5D2E0DEBFCDBF10E01F
:10005000A0E6B0E0E4E0F3E002C005900D92A43623
:10006000B107D9F710E0A4E6B0E001C01D92A337B4
:10007000B107E1F73AD144C1C3CFEF92FF920F939A
:100080001F9397D07B018C0180916600909167004F
:10009000A0916800B0916900A8019701281B390B55
:1000A0004A0B5B0B8091600090916100A09162000F
:1000B000B091630082179307A407B507E8F4E092B4
:1000C0006600F092670000936800109369008091C9
:1000D000640090916500892B39F481E090E0909361
:1000E00065008093640004C0109265001092640063
:1000F00081E060916400C5D01F910F91FF90EF9057
:10010000089581E061E07ED008951F920F920FB6AE
:100110000F9211242F933F934F935F936F937F938D
:100120008F939F93AF93BF9320916E0030916F0098
:10013000409170005091710070917200DA01C90114
:100140000296A11DB11D672F6A5F6D3730F06D57A4
:10015000DA01C9010396A11DB11D6093720080935D
:100160006E0090936F00A0937000B0937100809127
:100170006A0090916B00A0916C00B0916D000196A7
:10018000A11DB11D80936A0090936B00A0936C0039
:10019000B0936D00BF91AF919F918F917F916F91BF
:1001A0005F914F913F912F910F900FBE0F901F9035
:1001B00018958FB7F89420916E0030916F004091A0
:1001C0007000509171008FBFB901CA0108957894F1
:1001D0008AB582608ABD8AB581608ABD83B7826034
:1001E00083BF83B7816083BF89B7826089BF80B7CF
:1001F000826080BF80B7816080BF329A319A309A26
:10020000379A0895CF93DF93482F50E0CA018A5C54
:100210009F4FFC013491405D5F4FFA018491882328
:1002200069F190E0880F991FFC01E25EFF4FA591F4
:10023000B491FC01EC5DFF4FC591D491662351F45C
:100240002FB7F8948C91932F909589238C93888164
:1002500089230BC0623061F42FB7F8948C91932FEF
:10026000909589238C938881832B88832FBF06C028
:100270009FB7F8948C91832B8C939FBFDF91CF9184
:100280000895482F50E0CA01845C9F4FFC012491DF
:10029000CA018A5C9F4FFC019491405D5F4FFA0157
:1002A0003491332309F1222359F0213019F02230FF
:1002B00039F403C08AB58F7702C08AB58F7D8ABDB5
:1002C000E32FF0E0EE0FFF1FEC5DFF4FA591B4911F
:1002D0002FB7F894662321F48C919095892302C05E
:1002E0008C91892B8C932FBF0895CF93DF936FDF71
:1002F00008DFC0E0D0E0C1DE2097E9F381DEFBCF6C
:04030000F894FFCF9F
:04030400E80300000A
:00000001FF
